:0801190002081B0B020A58B892
:1000E000E4FDEDC39FE49E5009E4FC0CBC78FC0DDC
:0200F00080F09E
:0100F20022EB
:0E00F300758901758CE0758AC0D28CC291228D
:0D010100D2AFC2A8D2A9C2AAC2ABC2AC2222
:1000CB00308D11C28D050CE50CB40A08A291B392C8
:0400DB0090E4F50CAC
:0100DF0022FE
:0300030002009266
:0F009200C0E0C0D075D000C000C005C006C007D8
:1000A100E4FFFE2408F8E6F58C7D00ED240AF8E66D
:0D00B100F58AB2910FBF00010EEF64024E00
:0D00BE00D007D006D005D000D0D0D0E03261
:07012200D290C291D292229B
:0B010E001200F312010112012280F523
:03000000020006F5
:0C000600787FE4F6D8FD75810C02004DF7
:1000120002010EE493A3F8E493A34003F68001F2F5
:1000220008DFF48029E493A3F85407240CC8C333EF
:10003200C4540F4420C8834004F456800146F6DFBE
:10004200E4800B0102040810204080900119E47E34
:10005200019360BCA3FF543F30E509541FFEE493B3
:10006200A360010ECF54C025E060A840B8E493A37A
:10007200FAE493A3F8E493A3C8C582C8CAC583CAA5
:10008200F0A3C8C582C8CAC583CADFE9DEE780BE5D
:0101210000DD
:00000001FF
