:03000000020026D5
:0C002600787FE4F6D8FD75810902006DBA
:0600D60001080001090011
:1000B200759850D2AFD2A9C2A8C2ABC2AAD2AC2202
:0C001600758920758DFD758BFDD28E2242
:030023000200CD0B
:0900CD00859909C2986308FF320D
:0B00C200850999209904C29980F92259
:100003001200B21200161200C2E508B401FB12007E
:03001300C280F6B2
:10003200020003E493A3F8E493A34003F68001F2E1
:1000420008DFF48029E493A3F85407240CC8C333CF
:10005200C4540F4420C8834004F456800146F6DF9E
:10006200E4800B01020408102040809000D6E47E58
:10007200019360BCA3FF543F30E509541FFEE49393
:10008200A360010ECF54C025E060A840B8E493A35A
:10009200FAE493A3F8E493A3C8C582C8CAC583CA85
:1000A200F0A3C8C582C8CAC583CADFE9DEE780BE3D
:0100DC000023
:00000001FF
