:10008F001012C0F9A4B0999282F880908883C6A10B
:0E009F00868E0A08FEFDFBF7EFDFBF7F7F7F36
:0E00C70000007F057E907D47DDFEDEFCDFFA47
:0100D5002208
:1000AE00E4FC74122CF8E6F59074082CF8E6F4F5DE
:0800BE00A01200C70CBC08EA07
:0100C6002217
:0300D6000200AE77
:03000000020003F8
:0C000300787FE4F6D8FD75812102004AE8
:10000F000200D6E493A3F8E493A34003F68001F231
:10001F0008DFF48029E493A3F85407240CC8C333F2
:10002F00C4540F4420C8834004F456800146F6DFC1
:10003F00E4800B010204081020408090008FE47EC2
:10004F00019360BCA3FF543F30E509541FFEE493B6
:10005F00A360010ECF54C025E060A840B8E493A37D
:10006F00FAE493A3F8E493A3C8C582C8CAC583CAA8
:10007F00F0A3C8C582C8CAC583CADFE9DEE780BE60
:0100AD000052
:00000001FF
