:030000000200A754
:0C00A700787FE4F6D8FD7581240200EE9D
:0402D20071717100D5
:10021F000B0F30313233343536373839000208009E
:0C022F0000010E00020C0000020A00009A
:08023C00F8E6FF1202947F05B1
:10024400E4FEEEC39F5009E4FD0DBD78FC0E80F280
:010254002287
:10028200C290C2918F80D2927F02120244C2920225
:02029200024424
:10029400D290C2918F80D2927F02120244C2920203
:0202A400024412
:10025500AC05AB07EB7007EC2480FF120282BB01F3
:0902650007EC24C0FF1202822202
:1001FA008B228A238924AB22AA23A92412013360E1
:10020A00130524E5247002052314F9120133FF12A1
:05021A00029480E222C5
:10026E007F381202827F0C1202827F061202827F78
:04027E0001020282F5
:050003007F0C020282E7
:0502CD007F080202821F
:10000E00E4F521AE0AAF0BFC7D0A12014C8F1AAE3D
:10001E000AAF0B7C007D0A12014C8D1BAE0CAF0D8E
:10002E007C007D0A12014C8F1CAE0CAF0D7C007D46
:10003E000A12014C8D1DAE08AF097C007D0A12011B
:10004E004C8F1EAE08AF097C007D0A12014CAA052A
:10005E00E4FDFF120255740F251A12023C740F258F
:10006E001B12023C7F3B120294740F251C12023CA1
:10007E00740F251D12023C7F3B120294740F251E35
:10008E0012023C740F2A12023CE4FD7F011202554B
:09009E007BFF7A0279D20201FA1B
:0C02C100758901758C3C758AB0D28C22C6
:0D02B400D2AFD2A9C2A8C2ABC2AAC2AC226E
:03000B000201A14E
:1001A100C0E0C0D0758C3C758AB0050EE50EB41464
:1001B1000B0509E50970020508750E00E509643CA7
:1001C1004508700E050DE50D7002050C75080075EA
:1001D1000900E50D643C450C700E050BE50B700242
:1001E100050A750C00750D00E50B6418450A7004CD
:0901F100F50AF50BD0D0D0E03284
:0E02A60012026E1202C11202B412000E80FB90
:1000B3000202A6E493A3F8E493A34003F68001F2BB
:1000C30008DFF48029E493A3F85407240CC8C3334E
:1000D300C4540F4420C8834004F456800146F6DF1D
:1000E300E4800B010204081020408090021FE47E8C
:1000F300019360BCA3FF543F30E509541FFEE49312
:10010300A360010ECF54C025E060A840B8E493A3D8
:10011300FAE493A3F8E493A3C8C582C8CAC583CA03
:10012300F0A3C8C582C8CAC583CADFE9DEE780BEBB
:01023B0000C2
:10013300BB010689828A83E0225002E722BBFE02CA
:09014300E32289828A83E49322FD
:10014C00BC000BBE0029EF8DF084FFADF022E4CC97
:10015C00F875F008EF2FFFEE33FEEC33FCEE9DEC60
:10016C00984005FCEE9DFE0FD5F0E9E4CEFD22EDA6
:10017C00F8F5F0EE8420D21CFEADF075F008EF2FF0
:10018C00FFED33FD4007985006D5F0F222C398FDE1
:05019C000FD5F0EA227E
:00000001FF
