:1000C1001012C0F9A4B0999282F880908883C6A1D9
:0E00D100868E0A08FEFDFBF7EFDFBF7F7F7F04
:0E00E00000007F057E907D47DDFEDEFCDFFA2E
:0100EE0022EF
:10008F00E4F522F523F522F523AF2374082FF8E6C4
:10009F00F4F5A074122FF8E6F5901200E00523E5B1
:1000AF002370020522C3940AE5226480948040D90C
:0200BF0080CEF1
:03000000020003F8
:0C000300787FE4F6D8FD75812302004AE6
:10000F0002008FE493A3F8E493A34003F68001F278
:10001F0008DFF48029E493A3F85407240CC8C333F2
:10002F00C4540F4420C8834004F456800146F6DFC1
:10003F00E4800B01020408102040809000C1E47E90
:10004F00019360BCA3FF543F30E509541FFEE493B6
:10005F00A360010ECF54C025E060A840B8E493A37D
:10006F00FAE493A3F8E493A3C8C582C8CAC583CAA8
:10007F00F0A3C8C582C8CAC583CADFE9DEE780BE60
:0100DF000020
:00000001FF
