:0300000002009C5F
:0C009C00787FE4F6D8FD7581480200E38F
:10016900C1000247000001450001460A0221E0F8EA
:100179000243C03010233131313131313131313124
:100189003131313131311033313131313131313175
:080199003131313131313131D6
:0801F000C2918F80C2927F02D0
:1001F800E4FEEEC39F5009E4FD0DBD78FC0E80F2CD
:0102080022D3
:0A028000C2901201F0D2920201F8C0
:0A028A00D2901201F0D2920201F8A6
:10020900AC05AB07EB7007EC2480FF120280BB0141
:0902190007EC24C0FF1202802250
:1001CB008B088A09890AAB08AA09A90A12022260BC
:1001DB0013050AE50A7002050914F9120222FF122F
:0501EB00028A80E222FF
:05029B007F0C0202804F
:0502A0007F080202804E
:10023B007F381202807F0C1202807F061202807FB1
:04024B00010202802A
:10000E00E4FCFA7523407524417525557526547503
:10001E00274875284F752952752A3A752B5A752C13
:10002E0053752D58752E20752F2075302075312063
:10003E00753220FDFF120209E4FC74232CF8E6FF52
:10004E0012028A0CBC10F375334075344475354179
:10005E0075365475374575383A753932753A307587
:10006E003B32753C32753D2E753E39753F2E7540CF
:10007E0032754133754220E4FD7F01120209E4FA24
:0D008E0074332AF8E6FF12028A0ABA10F352
:01009B002242
:0C025C00758901758CFC758A18D28C2203
:0D024F00D2AFD2A9C2A8C2ABC2AAC2AC22D3
:03000B000201A24D
:0901A200C0E0C0D075D000C00718
:1001AB00E4FF758CFC758A180FBF14011FEFC39504
:0901BB00464004D2B28002C2B237
:0701C400D007D0D0D0E032DB
:07000300D2B0C2B1D2B2225B
:07029400C2B0C2B1C2B222E8
:0C026800E546D3940040041546154622DC
:0C027400E546D3941450040546054622CC
:1001280020A00D7F021201F820A03512000380F8EC
:1001380020A10D7F021201F820A12512026880F883
:1001480020A20D7F021201F820A21512027480F875
:1001580020A30D7F021201F820A30512029480F853
:010168002274
:1000A800020000E493A3F8E493A34003F68001F26E
:1000B80008DFF48029E493A3F85407240CC8C33359
:1000C800C4540F4420C8834004F456800146F6DF28
:1000D800E4800B0102040810204080900169E47E4E
:1000E800019360BCA3FF543F30E509541FFEE4931D
:1000F800A360010ECF54C025E060A840B8E493A3E4
:10010800FAE493A3F8E493A3C8C582C8CAC583CA0E
:10011800F0A3C8C582C8CAC583CADFE9DEE780BEC6
:0101A100005D
:10022200BB010689828A83E0225002E722BBFE02DA
:09023200E32289828A83E493220D
:00000001FF
