:03000000020003F8
:0C000300787FE4F6D8FD75813D02004ACC
:1000E700012B0010083131313131313131313131AA
:1000F7003131313131101831313131313131313123
:10010700313131313131310B2C30313233343536F5
:0D01170037383900012800012900012A00B5
:0A012500C2B48F80C2B57F027E00D5
:10012F00E4FDFCC3ED9FEC9E5015E4FAFB0BBB0006
:0F013F00010AEB64784A70F50DBD00010C80E4F5
:01014E00228E
:10019000C2B0C2B2D2B07F057E0012012FC2B03011
:0A01A000B6FDD2B285A02BC2B22238
:0A01E200C2B3120125D2B502012FAD
:0A01EC00D2B3120125D2B502012F93
:100174008F3AA905E53A7007E92480FF1201E2E508
:0C0184003AB40107E924C0FF1201E22296
:10014F008B3B8A3C893DAB3BAA3CA93D1201AA607F
:10015F0013053DE53D7002053C14F91201AAFF128B
:05016F0001EC80E2221A
:0501F6007F0C0201E294
:0501FB007F080201E293
:1001C3007F381201E27F0C1201E27F061201E27F07
:0401D300010201E242
:10008F00E4F537F538F539E52B75F06484F537E588
:10009F002B75F06484E5F075F00A84F538E52B755F
:1000AF00F00A8485F039E4FDFF120174742C2537B2
:1000BF00F8E6FF1201EC7D01E4FF120174742C25A8
:1000CF0038F8E6FF1201EC7D02E4FF120174742C84
:0800DF002539F8E6FF0201ECEF
:0B01D7001201C312008F12019080F88B
:10000F000201D7E493A3F8E493A34003F68001F22F
:10001F0008DFF48029E493A3F85407240CC8C333F2
:10002F00C4540F4420C8834004F456800146F6DFC1
:10003F00E4800B01020408102040809000E7E47E6A
:10004F00019360BCA3FF543F30E509541FFEE493B6
:10005F00A360010ECF54C025E060A840B8E493A37D
:10006F00FAE493A3F8E493A3C8C582C8CAC583CAA8
:10007F00F0A3C8C582C8CAC583CADFE9DEE780BE60
:0101240000DA
:1001AA00BB010689828A83E0225002E722BBFE0253
:0901BA00E32289828A83E4932286
:00000001FF
