:0300000002009269
:0C009200787FE4F6D8FD7581220200D9C9
:10011E001008C0F9A4B0999282F880908883C6A185
:10012E00868E0A19FEFDFBF7EFDFBF7F7F7F01187A
:01013E0000C0
:10014000E4FDFCC3ED9FEC9E5015E4FAFB0BBB00F5
:0F015000010AEB64784A70F50DBD00010C80E4E4
:01015F00227D
:1000030075B0FE85B0185318F0E51864F0603B7FB7
:10001300057E00120140E51864F0602E85B018E5F6
:10002300182482601B24C0601224E0600924F0704D
:10003300E5850880800D8509808008850A80800316
:10004300850B80E519F4F5A080CC75B0FE85B0185A
:100053005318F07F057E00120140E51864F0602E0E
:1000630085B018E5182483601B24C0601224E06067
:100073000924F070E5850C80800D850D808008854E
:0F0083000E808003850F80E519F4F5A080CC2254
:0501600012000380FB0A
:10009E00020160E493A3F8E493A34003F68001F217
:1000AE0008DFF48029E493A3F85407240CC8C33363
:1000BE00C4540F4420C8834004F456800146F6DF32
:1000CE00E4800B010204081020408090011EE47EA3
:1000DE00019360BCA3FF543F30E509541FFEE49327
:1000EE00A360010ECF54C025E060A840B8E493A3EE
:1000FE00FAE493A3F8E493A3C8C582C8CAC583CA19
:10010E00F0A3C8C582C8CAC583CADFE9DEE780BED0
:01013F0000BF
:00000001FF
