:1000B4001012C0F9A4B0999282F880908883C6A1E6
:0E00C400868E0A08FEFDFBF7EFDFBF7F7F7F11
:0E00EC0000007F057E907D47DDFEDEFCDFFA22
:0100FA0022E3
:1000D300E4FC74122CF8E6F59074082CF8E6F4F5B9
:0800E300A01200EC0CBC08EABD
:0100EB0022F2
:10008F00E4F589758CB1758AE0D28C308D0AD28CEB
:10009F00758CB1758AE00522E522B432EEE4F522C3
:0500AF001200D380E601
:0300FB0002008F71
:03000000020003F8
:0C000300787FE4F6D8FD75812202004AE7
:10000F000200FBE493A3F8E493A34003F68001F20C
:10001F0008DFF48029E493A3F85407240CC8C333F2
:10002F00C4540F4420C8834004F456800146F6DFC1
:10003F00E4800B01020408102040809000B4E47E9D
:10004F00019360BCA3FF543F30E509541FFEE493B6
:10005F00A360010ECF54C025E060A840B8E493A37D
:10006F00FAE493A3F8E493A3C8C582C8CAC583CAA8
:10007F00F0A3C8C582C8CAC583CADFE9DEE780BE60
:0100D200002D
:00000001FF
