:0909890001090A010A0A01080033
:04095D007F0A7E008F
:10096100E4FDFCC3ED9FEC9E50070DBD00010C8022
:01097100F293
:010972002262
:05099300C2A0D2A12268
:05099800D2A0C2A12263
:05099D00C2A2D2A3225A
:0509A200D2A2C2A32255
:1008000020902712095D20902120000BE509D39448
:100810000040041509150930000BE50AD394004087
:1008200004150A150A20907580FB20912712095D96
:1008300020911C20000BE509D394145004050905F0
:100840000930000BE50AD394145004050A050A2068
:10085000914B80FB20921712095D20920C2000031F
:1008600012099330000312099D20923180FB2093DE
:100870001712095D20930C20000312099830000321
:100880001209A220931780FB20941212095D209474
:0E08900009200003D38001C392003094FD22A2
:10097300D2AF758901758CFC758A17D2A9D28CC246
:060983000012080080FBD9
:03000B0002092ABD
:04092A00C0E0C0D099
:10092E00758CFC758A170508E508B4140375080064
:10093E00E508C395094004D2A48002C2A4E508C309
:0A094E00950A4004D2A58002C2A55C
:05095800D0D0D0E03218
:0300000002089E55
:0C089E00787FE4F6D8FD7581200208E5A3
:1008AA00020973E493A3F8E493A34003F68001F2E8
:1008BA0008DFF48029E493A3F85407240CC8C3334F
:1008CA00C4540F4420C8834004F456800146F6DF1E
:1008DA00E4800B0102040810204080900989E47E1C
:1008EA00019360BCA3FF543F30E509541FFEE49313
:1008FA00A360010ECF54C025E060A840B8E493A3DA
:10090A00FAE493A3F8E493A3C8C582C8CAC583CA04
:10091A00F0A3C8C582C8CAC583CADFE9DEE780BEBC
:010992000064
:00000001FF
